:100000000C942A001895000018950000189500001F
:10001000189500001895000018950000189500002C
:100020001895000018950000189500000C94B00E6B
:100030000C94DC0E1895000018950000189500002F
:1000400018950000189500001895000018950000FC
:10005000189500008FE58DBFC8E3E8E94E2E84E0D7
:100060008EBFD4E0F2E05F2EEEEFF3E0A0E6B0E06A
:10007000A89584B7082E877F84BF88E1992781BD22
:1000800091BD88278D933197E9F789E189B980E09F
:1000900080BD88E18AB96624579A8E9A969A8D987F
:1000A00080ED97E0AEE2B1E08D939C93A5E6B1E0E0
:1000B000E2E2FFE10E94A60EA8E9B1E0E4E4FFE17C
:1000C0000E94A60E7894A2E3B1E0E6E6FFE10E946A
:1000D000A60EA0E3B1E0BA93AA935A924A92E2E341
:1000E000F1E0A42DB52D0E94860F83E30E94970DA9
:1000F0000E944C02249683E30E94930D0E94670E97
:10010000A1E3B1E08C9300913101013311F00C9423
:10011000AF00A2E3B1E0ECE6FFE10E94A60EA0E38F
:10012000B1E0BA93AA93A2E3B1E0BA93AA930E9472
:1001300059022496A0E3B1E0BA93AA935A924A9244
:1001400081E0A42DB52D8C9381E00E94970D0E9433
:100150009902249681E00E94930D0C942302009151
:100160003101023311F00C94DB00A2E3B1E0E8E8C6
:10017000FFE10E94A60EA0E3B1E0BA93AA93A2E326
:10018000B1E0BA93AA930E9459022496A0E3B1E089
:10019000BA93AA935A924A9286E0A42DB52D8C93D5
:1001A00081E00E94970D0E941503249681E00E9431
:1001B000930D0C94230200913101033311F00C9440
:1001C000FB00A2E3B1E0E0EAFFE10E94A60EA0E39B
:1001D000B1E0BA93AA93A2E3B1E0BA93AA930E94C2
:1001E00059022496A0E3B1E0BA93AA930E94F903BE
:1001F00022960C94230200913101043311F00C94E7
:100200003401A2E3B1E0E4EBFFE10E94A60EA0E31B
:10021000B1E0BA93AA93A2E3B1E0BA93AA930E9481
:1002200059022496A0E3B1E0BA93AA935A924A9253
:10023000A42DB52DE2EEFFE10E94A60E8AE00E94F9
:10024000970D5A924A92E5E6F1E0A42DB52D0E9451
:10025000860F83E30E94970D0E94400526968DE34A
:100260000E94930D0C94230200913101053311F08B
:100270000C946201A2E3B1E0ECEEFFE10E94A60E55
:10028000A0E3B1E0BA93AA93A2E3B1E0BA93AA9330
:100290000E9459022496A0E3B1E0BA93AA935A921D
:1002A0004A92A42DB52DE2EEFFE10E94A60E8AE04F
:1002B0000E94970D0E942D0424968AE00E94930DBF
:1002C0000C94230200913101063311F00C949B0130
:1002D000A2E3B1E0ECE0F0E20E94A60EA0E3B1E000
:1002E000BA93AA93A2E3B1E0BA93AA930E945902E7
:1002F0002496A0E3B1E0BA93AA935A924A92A42D0D
:10030000B52DE2EEFFE10E94A60E8AE00E94970D55
:100310005A924A92E8E9F1E0A42DB52D0E94860F89
:1003200083E30E94970D0E94DC0526968DE30E94D0
:10033000930D0C94230200913101073311F00C94BA
:10034000C901A2E3B1E0E6E3F0E20E94A60EA0E359
:10035000B1E0BA93AA93A2E3B1E0BA93AA930E9440
:1003600059022496A0E3B1E0BA93AA935A924A9212
:10037000A42DB52DE2EEFFE10E94A60E8AE00E94B8
:10038000970D0E94BD0B24968AE00E94930D0C9459
:10039000230200913101083311F00C94F701A2E31C
:1003A000B1E0E8E5F0E20E94A60EA0E3B1E0BA9366
:1003B000AA93A2E3B1E0BA93AA930E9459022496A9
:1003C000A0E3B1E0BA93AA935A924A92A42DB52D14
:1003D000E8E7F0E20E94A60E8AE00E94970D0E94D4
:1003E0002D0424968AE00E94930D0C942302009120
:1003F0003101093311F00C942302A2E3B1E0E2E8E9
:10040000F0E20E94A60EA0E3B1E0BA93AA93A2E3A1
:10041000B1E0BA93AA930E9459022496A0E3B1E0F6
:10042000BA93AA935A924A92A42DB52DE8EAF0E223
:100430000E94A60E8AE00E94970D0E949E042496B8
:100440008AE00E94930D0E94C40D082F013011F024
:100450000C944A020E94CA0DA0E3B1E08C93A2E37F
:10046000B1E0E0E3F1E00E94200FA0E3B1E0BA9335
:10047000AA935A924A92E2E3F1E0A42DB52D0E948C
:10048000860F83E30E94970D0E944C02249683E31B
:100490000E94930D0C947E00A881B9810E94580E91
:1004A0000E944D0E0895A881B98132E30E947C0E0E
:1004B0000895A0E3B1E0BA93AA935A924A92A42D68
:1004C000B52DE2EBF0E20E94A60E87E10E94970DA7
:1004D0000E944C02249687E10E94930DA0E3B1E0B4
:1004E000BA93AA935A924A92EC81FD81A42DB52D1C
:1004F0000E94860F83E30E94970D0E944C0224966F
:1005000083E30E94930DA0E3B1E0BA93AA935A92B9
:100510004A92A42DB52DEAECF0E20E94A60E87E1E6
:100520000E94970D0E944C02249687E10E94930D31
:10053000089581E00E94960E81E00E94960E89E265
:100540000E94960E0FEFAE81BF814C91041BAC81CF
:10055000BD810C9387E50E94030E8BEA0E94030E77
:1005600086E00E94030E31E0AE81BF810E94FB0D48
:10057000AA81BB81BA93AA935A924A92A42DB52D0F
:10058000E2EEF0E20E94A60E84E10E94970D0E9426
:10059000120D249684E10E94930DAC81BD814C9193
:1005A000AA81BB810C91041711F00C94F402A8816C
:1005B000B981E6EFF0E20E94A60EA0E3B1E0BA93A3
:1005C000AA935A924A92EC81FD81A42DB52D0E94E6
:1005D000860F89E20E94970D0E944C02249689E2C0
:1005E0000E94930D0C940F03A881B981ECE1F1E214
:1005F0000E94A60EA0E3B1E0BA93AA935A924A923F
:10060000EC81FD81A42DB52D0E94860F89E20E9408
:10061000970D0E944C02249689E20E94930D8BE272
:10062000481A8827580A2696089581E00E94960E57
:1006300081E00E94960E89E20E94960E87E50E9454
:10064000030E8BEA0E94030E85E10E94030E31E047
:10065000AE81BF810E94FB0D8AE090E00E94870E70
:100660000E94C40D082F013011F00C94EF030E947A
:10067000CA0DAC81BD818C93AC81BD810C910135DB
:1006800011F00C94B903A881B981ECE3F1E20E9466
:10069000A60EAA81BB81BA93AA935A924A92EC8180
:1006A000FD81A42DB52D0E94860F89E20E94970D31
:1006B0000E944C02249689E20E94930D0E94CA0D6A
:1006C000AC81BD818C93AC81BD810C91053111F061
:1006D0000C948103AA81BB81BA93AA935A924A923D
:1006E000A42DB52DEEE5F1E20E94A60E8FE00E944A
:1006F000970D0E944C0224968FE00E94930D0C945B
:10070000B703A881B981EEE6F1E20E94A60EAA81A4
:10071000BB81BA93AA935A924A92EC81FD81A42D8F
:10072000B52D0E94860F89E20E94970D0E944C020F
:10073000249689E20E94930DA881B981EC81FD8104
:100740000E94200FAA81BB81BA93AA935A924A921F
:10075000EC81FD81A42DB52D0E94860F89E20E94B7
:10076000970D0E944C02249689E20E94930D0C94EE
:10077000EF03A881B981ECE8F1E20E94A60EAA81FC
:10078000BB81BA93AA935A924A92EC81FD81A42D1F
:10079000B52D0E94860F89E20E94970D0E944C029F
:1007A000249689E20E94930DA881B981EC81FD8194
:1007B0000E94200FAA81BB81BA93AA935A924A92AF
:1007C000EC81FD81A42DB52D0E94860F89E20E9447
:1007D000970D0E944C02249689E20E94930D81E0BD
:1007E00090E00E94870E8BE2481A8827580A2696C6
:1007F000089581E00E94960E89E20E94960E87E598
:100800000E94030E8BEA0E94030E85E00E94030EF5
:1008100082E390E00E94870EA881B981E8EAF1E2C4
:100820000E94A60EAA81BB81BA93AA935A924A92B9
:10083000EC81FD81A42DB52D0E94860F89E20E94D6
:10084000970D0E944C02249689E20E94930D8AE241
:10085000481A8827580A2496089581E00E94960E27
:1008600082E00E94960EAA81BB81BA93AA930E944D
:10087000F9032296AA81BB81BA93AA935A924A920B
:1008800086E0A42DB52D8C9381E00E94970D0E94E7
:100890001503249681E00E94930DAA81BB81BA932F
:1008A000AA930E94BA062296AA81BB81BA93AA9300
:1008B0000E9429072296AA81BB81BA93AA935A92D1
:1008C0004A92E885F985A42DB52D0E94860F83E311
:1008D0000E94970D0E946406249683E30E94930D64
:1008E000AA81BB81BA93AA930E9498072296A881F5
:1008F000B981BA93AA930E945A082296AA81BB8111
:10090000BA93AA930E9473092296AA81BB81BA93D3
:10091000AA935A924A9280E0A42DB52D8C9381E03F
:100920000E94970D0E947D0C249681E00E94930DF9
:1009300083E0481A8827580A2496089581E00E9487
:10094000960E89E20E94960EAA81BB81BA93AA9361
:100950000E94F9032296AA81BB81BA93AA935A9264
:100960004A9286E0A42DB52D8C9381E00E94970DCC
:100970000E941503249681E00E94930DAA81BB81F9
:10098000BA93AA930E94BA062296AA81BB81BA930F
:10099000AA930E9429072296AA81BB81BA93AA939F
:1009A0005A924A92E885F985A42DB52D0E94860FAA
:1009B00083E30E94970D0E946406249683E30E94BD
:1009C000930DAA81BB81BA93AA930E947E0B2296B3
:1009D000AA81BB810C91013011F00C940C05A88107
:1009E000B981EAECF1E20E94A60EAA81BB81BA931A
:1009F000AA935A924A92EC81FD81A42DB52D0E94B2
:100A0000860F89E20E94970D0E944C02249689E28B
:100A10000E94930D0C942705A881B981E4EEF1E2C0
:100A20000E94A60EAA81BB81BA93AA935A924A92B7
:100A3000EC81FD81A42DB52D0E94860F89E20E94D4
:100A4000970D0E944C02249689E20E94930DAA8180
:100A5000BB81BA93AA935A924A9281E0A42DB52DF4
:100A60008C9381E00E94970D0E947D0C249681E07A
:100A70000E94930D8AE2481A8827580A24960895FE
:100A800081E00E94960E89E20E94960EAA81BB81A7
:100A9000BA93AA930E94F9032296AA81BB81BA93C2
:100AA000AA935A924A9286E0A42DB52D8C9381E0A8
:100AB0000E94970D0E941503249681E00E94930DD9
:100AC000AA81BB81BA93AA930E94BA062296AA81F0
:100AD000BB81BA93AA930E9429072296AA81BB815F
:100AE000BA93AA935A924A92EA85FB85A42DB52D12
:100AF0000E94860F83E30E94970D0E94640624964D
:100B000083E30E94930DAA81BB81BA93AA930E94AA
:100B10007E0B2296AA81BB810C91013011F00C94BE
:100B2000A805AA81BB81BA93AA935A924A92E885F2
:100B3000F985A42DB52D0E94860F83E30E94970DA1
:100B40000E94260A249683E30E94930D0C94C30509
:100B5000A881B981E4EEF1E20E94A60EAA81BB81D0
:100B6000BA93AA935A924A92EC81FD81A42DB52D95
:100B70000E94860F89E20E94970D0E944C022496E3
:100B800089E20E94930DAA81BB81BA93AA935A92DB
:100B90004A9281E0A42DB52D8C9381E00E94970D9F
:100BA0000E947D0C249681E00E94930D8AE2481AEF
:100BB0008827580A2496089581E00E94960EA881FD
:100BC000B981BA93AA930E94F9032296A881B981A8
:100BD000BA93AA935A924A9286E0A42DB52D8C938B
:100BE00081E00E94970D0E941503249681E00E94E7
:100BF000930DA881B981BA93AA930E94BA0622964E
:100C0000A881B981BA93AA930E9429072296A88144
:100C1000B981BA93AA935A924A92E885F985A42D8C
:100C2000B52D0E94860F83E30E94970D0E946406F3
:100C3000249683E30E94930DA881B981BA93AA9365
:100C40000E9498072296A881B981BA93AA935A92D2
:100C50004A9280E0A42DB52D8C9381E00E94970DDF
:100C60000E94190C249681E00E94930DA881B981FD
:100C7000BA93AA935A924A92EE81FF81A42DB52D80
:100C80000E94860F83E30E94970D0E94260A2496F5
:100C900083E30E94930DA881B981BA93AA935A92D3
:100CA0004A9281E0A42DB52D8C9381E00E94970D8E
:100CB0000E947D0C249681E00E94930D81E0481AE9
:100CC0008827580A2296089581E00E94960E81E0B6
:100CD0000E94960EAC81BD810E948B0FA881B981C4
:100CE0008C93AA81BB81BA93AA935A924A92A42D5B
:100CF000B52DE4E1F2E20E94A60E86E10E94970D76
:100D00000E944C02249686E10E94930DAA81BB8129
:100D1000BA93AA935A924A92E885F985A42DB52DE3
:100D20000E94860F83E30E94970D0E944C02249636
:100D300083E30E94930D87E50E94030E8BEA0E94D5
:100D4000030E8FE20E94030E8FE20E94030EAC811D
:100D5000BD810E94F50D80E00E94030E0E94000EEE
:100D600081E090E00E94870E82E0481A8827580AA6
:100D70002496089581E00E94960EA881B981BA93C5
:100D8000AA935A924A92A42DB52DEAE2F2E20E9469
:100D9000A60E84E20E94970D0E944C02249684E2E3
:100DA0000E94930D87E50E94030E8BEA0E94030EBA
:100DB00080E30E94030EA881B981BA93AA935A9244
:100DC0004A92A42DB52DEEE4F2E20E94A60E87E130
:100DD0000E94970D0E94120D249687E10E94930DA8
:100DE000A881B9810C91043111F00C940E07A881EF
:100DF000B981BA93AA935A924A92A42DB52DE6E6E8
:100E0000F2E20E94A60E86E10E94970D0E944C021B
:100E1000249686E10E94930D0C942307A881B98142
:100E2000BA93AA935A924A92A42DB52DECE7F2E216
:100E30000E94A60E8DE10E94970D0E944C022496FE
:100E40008DE10E94930D81E0481A8827580A229666
:100E5000089581E00E94960EA881B981BA93AA9361
:100E60005A924A92A42DB52DEAE9F2E20E94A60E0A
:100E700082E10E94970D0E944C02249682E10E941A
:100E8000930D87E50E94030E8BEA0E94030E81E317
:100E90000E94030EA881B981BA93AA935A924A92EA
:100EA000A42DB52DEAE9F2E20E94A60E82E10E948D
:100EB000970D0E94120D249682E10E94930DA88145
:100EC000B9810C91043111F00C947D07A881B9818E
:100ED000BA93AA935A924A92A42DB52DECEAF2E263
:100EE0000E94A60E82E10E94970D0E944C02249659
:100EF00082E10E94930D0C949207A881B981BA9364
:100F0000AA935A924A92A42DB52DEEEBF2E20E94DA
:100F1000A60E8BE10E94970D0E944C0224968BE155
:100F20000E94930D81E0481A8827580A2296089556
:100F300081E00E94960E89E20E94960EAA81BB81F2
:100F4000BA93AA935A924A92A42DB52DEAEDF2E2F1
:100F50000E94A60E8EE00E94970D0E944C022496DD
:100F60008EE00E94930D87E50E94030E8BEA0E949B
:100F7000030E82E30E94030EAA81BB81BA93AA9357
:100F80005A924A92A42DB52DE8EEF2E20E94A60EE6
:100F90008AE00E94970D0E94120D24968AE00E941A
:100FA000930DAA81BB810C91043111F00C94EF07D1
:100FB000AA81BB81BA93AA935A924A92A42DB52DC5
:100FC000E2EFF2E20E94A60E8BE10E94970D0E94D2
:100FD0004C0224968BE10E94930D0C940408AA8184
:100FE000BB81BA93AA935A924A92A42DB52DEEE0F2
:100FF000F3E20E94A60E86E10E94970D0E944C0229
:10100000249686E10E94930D8AE2481A8827580A9E
:101010002496089581E00E94960E81E00E94960E2B
:1010200082E00E94960E80E0AA81BB818C9380E0D2
:1010300090E0A881B9818D939C9387E50E94030E6F
:101040008BEA0E94030E8AE30E94030E31E0AE8118
:10105000BF810E94FB0D80E00E94030EAC81BD8128
:10106000BA93AA935A924A92A42DB52DE4E2F3E2E0
:101070000E94A60E8EE00E94970D0E94120D2496EB
:101080008EE00E94930DAC81BD810C910D3111F069
:101090000C944E0881E0AA81BB818C93AA81BB810C
:1010A0008C91A885B9858C9384E0481A8827580AC2
:1010B0002696089581E00E94960E82E00E94960E88
:1010C00082E00E94960E89E20E94960E80E090E0F7
:1010D000AC81BD818D939C93AE81BF81BA93AA935D
:1010E0005A924A92A42DB52DE2E3F3E20E94A60E95
:1010F00082E10E94970D0E944C02249682E10E9498
:10110000930D87E50E94030E8BEA0E94030E8CE08C
:101110000E94030E88E60E94030E81E090E00E9488
:10112000870EAE81BF81BA93AA935A924A92A42D98
:10113000B52DE4E4F3E20E94A60E8BE00E94970D29
:101140000E944C0224968BE00E94930D0E94C40DD5
:10115000082F013011F00C94BF08AC81BD810D91B6
:101160001C910F931F930E94CA0D482F55271F9162
:101170000F91040F151FAC81BD810D931C930E942C
:10118000C40D082F013011F00C94E0080E94CA0D24
:10119000082F11274FEF50E00E949C0EAA81BB81BF
:1011A0000D931C93AC81BD810D911C91AA81BB81D3
:1011B0004D915C91040F151FAC81BD810D931C9363
:1011C0000E94C40D082F013011F00C940D090E94EB
:1011D000CA0D082F11274FEF50E00E949C0EAA81E4
:1011E000BB810D931C93AA81BB810D911C914FEF84
:1011F00050E00E949C0EAA81BB810D931C93AC8190
:10120000BD810D911C91AA81BB814D915C91040F10
:10121000151FAC81BD810D931C930E94C40D082F36
:10122000013011F00C9446090E94CA0D082F1127B5
:101230004FEF50E00E949C0EAA81BB810D931C933E
:10124000AA81BB810D911C914FEF50E00E949C0E32
:10125000AA81BB810D931C93AA81BB810D911C9126
:101260004FEF50E00E949C0EAA81BB810D931C930E
:10127000AC81BD810D911C91AA81BB814D915C9186
:10128000040F151FAC81BD810D931C93A881B981FA
:10129000EC81FD810E94190FAE81BF81BA93AA93A0
:1012A0005A924A92EC81FD81A42DB52D0E94860FA1
:1012B00089E20E94970D0E944C02249689E20E94C6
:1012C000930D81E090E00E94870EAC81BD818D91ED
:1012D0009C91A885B9858D939C938EE2481A8827A6
:1012E000580A2896089581E00E94960E81E00E9497
:1012F000960E89E20E94960E83E00E94960E81E08F
:101300000E94960E81E00E94960E81E0A885B98524
:101310008C9380E0AA81BB818C9380E4A881B98101
:101320008C93A885B985BA93AA935A924A92AC81B4
:10133000BD818C91A42DB52D8C9381E00E94970DD9
:101340000E940A08249681E00E94930D87E50E947E
:10135000030E8BEA0E94030E87E20E94030E81E0D7
:1013600090E00E94870EAA81BB81BA93AA935A92F9
:101370004A92A42DB52DE0E5F3E20E94A60E8DE081
:101380000E94970D0E94120D24968DE00E94930DED
:101390000E94C40D082F013011F00C94DF090E9447
:1013A000CA0DAA85BB858C9331E0AA85BB850E94B6
:1013B000510E81E090E00E94870E0C94C809AA8526
:1013C000BB85BA93AA930E943F0B2296AA85BB8540
:1013D0000C91003011F00C94EF090C94F609A885DB
:1013E000B9850C91003011F00C949109AA85BB8548
:1013F000BA93AA935A924A92A42DB52DEEE5F3E240
:101400000E94A60E82E00E94970D0E944C02249634
:1014100082E00E94930DAA85BB85BA93AA935A9243
:101420004A92A42DB52DE0E6F3E20E94A60E8DE0CF
:101430000E94970D0E944C0224968DE00E94930D0D
:1014400080E3481A8827580A2C96089581E00E9464
:10145000960E81E00E94960E89E20E94960E81E02F
:101460000E94960EA885B9850E948B0FA881B9812C
:101470008C93AC81BD81BA93AA935A924A92A42DBF
:10148000B52DEEE6F3E20E94A60E81E10E94970DD3
:101490000E944C02249681E10E94930DAC81BD8193
:1014A000BA93AA935A924A92EC85FD85A42DB52D44
:1014B0000E94860F83E30E94970D0E944C0224969F
:1014C00083E30E94930DAA81BB81E0E8F3E20E94CE
:1014D000A60EAA81BB810E94BD0DE881F9810E9400
:1014E000200FAC81BD81BA93AA935A924A92EE81A1
:1014F000FF81A42DB52D0E94860F89E20E94970DD1
:101500000E944C02249689E20E94930D81E090E0B3
:101510000E94870E87E50E94030E8BEA0E94030E4D
:101520008CE30E94030E31E0A881B9810E94FB0D7B
:1015300080E00E94030EAE81BF81BA93AA935A92B3
:101540004A92A42DB52DEEE8F3E20E94A60E84E1A6
:101550000E94970D0E94120D249684E10E94930D23
:10156000AE81BF810C910E3111F00C94390B87E5DF
:101570000E94030E8BEA0E94030E8DE20E94030E6E
:10158000A885B9850E94F50D0E94000EAE81BF812D
:10159000BA93AA935A924A92A42DB52DE2EAF3E2A5
:1015A0000E94A60E85E10E94970D0E94120D2496BE
:1015B00085E10E94930DAC81BD81BA93AA935A92A2
:1015C0004A92A42DB52DE8EBF3E20E94A60E82E22A
:1015D0000E94970D0E944C02249682E20E94930D75
:1015E00087E50E94030E8BEA0E94030E8DE30E94A2
:1015F000030EAC81BD81BA93AA935A924A92A42D4C
:10160000B52DEAEDF3E20E94A60E83E10E94970D4C
:101610000E94120D249683E10E94930DAA81BB8142
:10162000EE81FF810E946A0FAA81BB810E94BD0DDD
:10163000EEEEF3E20E94A60EAA81BB810E94BD0DD0
:10164000EC81FD810E946A0FAC81BD81BA93AA939F
:101650005A924A92EE81FF81A42DB52D0E94860FE9
:1016600089E20E94970D0E944C02249689E20E9412
:10167000930D8CE2481A8827580A2896089581E02D
:101680000E94960E81E00E94960E80E0A881B981AA
:101690008C9387E50E94030E8BEA0E94030E8BE376
:1016A0000E94030EAA81BB81BA93AA935A924A92CE
:1016B000A42DB52DE4EFF3E20E94A60E8EE00E9469
:1016C000970D0E94120D24968EE00E94930DAA8120
:1016D000BB810C91043111F00C94720B81E0A88154
:1016E000B9818C93A881B9818C91AC81BD818C9397
:1016F00082E0481A8827580A2496089581E00E94BB
:10170000960E81E00E94960E80E0A881B9818C93AC
:1017100087E50E94030E8BEA0E94030E84E30E9479
:10172000030EAA81BB81BA93AA935A924A92A42D1E
:10173000B52DE2E0F4E20E94A60E8EE00E94970D25
:101740000E94120D24968EE00E94930DAA81BB8107
:101750000C91043111F00C94B10B81E0A881B98196
:101760008C93A881B9818C91AC81BD818C9382E0EE
:10177000481A8827580A2496089581E00E94960EF8
:10178000A881B981BA93AA935A924A92EE81FF81B5
:10179000A42DB52D0E94860F83E30E94970D0E9411
:1017A0006406249683E30E94930D81E090E00E94FA
:1017B000870E87E50E94030E8BEA0E94030E85E3E5
:1017C0000E94030EA881B981BA93AA935A924A92B1
:1017D000A42DB52DE0E1F4E20E94A60E8EE00E9459
:1017E000970D0E94120D24968EE00E94930DA88101
:1017F000B9810C91043111F00C94130CA881B981BA
:10180000BA93AA935A924A92A42DB52DEEE1F4E22E
:101810000E94A60E8AE10E94970D0E944C02249617
:101820008AE10E94930D81E0481A8827580A22967F
:10183000089581E00E94960E87E50E94030E8BEAD0
:101840000E94030E89E30E94030EAA81BB810C91C2
:10185000013011F00C943A0C80E00E94030E80E0FD
:101860000E94030E80E00E94030E80E00E94030E9F
:101870000C94460C8FEF0E94030E8FEF0E94030E14
:101880008FEF0E94030E8FEF0E94030EA881B98193
:10189000BA93AA935A924A92A42DB52DE8E3F4E2A2
:1018A0000E94A60E85E10E94970D0E94120D2496BB
:1018B00085E10E94930DA881B9810C91043111F04A
:1018C0000C94770CA881B981BA93AA935A924A9240
:1018D000A42DB52DEEE4F4E20E94A60E8DE10E9447
:1018E000970D0E944C0224968DE10E94930D81E099
:1018F000481A8827580A2296089581E00E94960E79
:1019000089E20E94960E81E00E94960EAC81BD8114
:10191000BA93AA935A924A92A42DB52DECE6F4E21A
:101920000E94A60E8EE00E94970D0E944C02249603
:101930008EE00E94930D87E50E94030E8BEA0E94C1
:10194000030E86E30E94030E31E0AE81BF810E9448
:10195000FB0DA881B981BA93AA935A924A92A42DF9
:10196000B52DEAE7F4E20E94A60E8DE00E94970DE5
:101970000E94120D24968DE00E94930DA881B981DA
:101980000C91043111F00C94DC0CAC81BD81BA9344
:10199000AA935A924A92A42DB52DE8E8F4E20E9447
:1019A000A60E8BE10E94970D0E944C0224968BE1BB
:1019B0000E94930D0C940C0DAC81BD81BA93AA9337
:1019C0005A924A92A42DB52DE4EAF4E20E94A60EA2
:1019D00083E20E94970D0E944C02249683E20E94AB
:1019E000930DAA81BB81E881F9810E94200FAC810F
:1019F000BD81BA93AA935A924A92EE81FF81A42D97
:101A0000B52D0E94860F89E20E94970D0E944C021C
:101A1000249689E20E94930D8BE2481A8827580A7F
:101A20002696089581E00E94960E82E00E94960E0E
:101A300080E0AA81BB818C9380E090E0A881B9818D
:101A40008D939C930E94C40D082F013011F40C94C7
:101A5000770D81E090E00E94870EA881B9810D91F9
:101A60001C9141E050E0040F151FA881B9810D932E
:101A70001C93AEE2B1E04D915C91A881B9810D91CA
:101A80001C91041715071CF011F00C94490D0C94CF
:101A9000750DA0E3B1E0BA93AA935A924A92A42D8D
:101AA000B52DE8ECF4E20E94A60E87E10E94970DA6
:101AB0000E944C02249687E10E94930DA0E3B1E0BE
:101AC000BA93AA935A924A92E885F985A42DB52D26
:101AD0000E94860F83E30E94970D0E944C02249679
:101AE00083E30E94930D0C94770D0C94220D0E94B9
:101AF000C40D082F013011F00C94870D0E94CA0DFF
:101B0000AA81BB818C9381E090E00E94870EAA811C
:101B1000BB818C91AE81BF818C9383E0481A88276A
:101B2000580A24960895481A8827580A0895480E96
:101B30008827581E089505D00E949C0E00FC0CD0EA
:101B400008950024E89457FF02C009D0689400F873
:101B50000BD010F80124089502D009D008955095B3
:101B600040954F5F5F4F0895E89417FF08950095E3
:101B700010950F5F1F4F689408958F938D91882360
:101B8000E9F711978F91089580912D01882309F02D
:101B900081E0089580912D01882309F408950F9222
:101BA0009F93AF93BF937F9380912D018823E1F39F
:101BB000F89480912D018A9580932D0190912B01AD
:101BC000A7ECB0E0A90F0024B01D8C91939594363A
:101BD00009F4992790932B0178947F91BF91AF914D
:101BE0009F910F900895A0E8B2E08D91882311F0A5
:101BF0000AD0FBCF08958D9106D03A95E1F708956C
:101C00008DE001D08AE09F939FB79F93AF93BF93DE
:101C10000F937F939091C6009436E1F3F8949091DE
:101C2000C60093959093C60099270091C500A0E641
:101C3000B0E0A00FB91F8C930395043609F4002778
:101C40000093C500559A7F910F91BF91AF919F91DD
:101C50009FBF9F9108953197F1F70895689462F8B6
:101C60000895E89462F808958F939F938FE290E02F
:101C70000197F1F79F918F91089580952AE090E068
:101C8000089410F4969802C0969A0000EDDFECDFFD
:101C9000969587952A95A9F708958DE0EEDF8AE05D
:101CA000ECCF8D91EADF3A95E1F70895A0E8B2E034
:101CB0008D91882311F0E1DFFBCF08958F939F93DF
:101CC0008FE290E00197F1F79F918F910895859BA6
:101CD00002C08827089529E08599FECFEFDFEEDF67
:101CE000EDDF8894859908942A9519F08795979542
:101CF000F6CF0895A0E8B2E0EEDF8D3029F033236F
:101D0000D9F38D933A95F8CF88278C930895EF9364
:101D1000FF93EE27E82BE92B31F0E8EEF3E0319763
:101D2000F1F70197D1F7FF91EF9108955A924A92F6
:101D3000480E8827581E08950F92B801469F8001CB
:101D4000479F100D569F100D0F9008950E94AC0EE6
:101D50000D920020D9F70895C89531960020089576
:101D60007F930F93AF93BF938F939F938FB78F936F
:101D700080912D0104E6081B21F49CB10E942E0ED7
:101D800012C000912C01A7ECB0E077279CB1A00F06
:101D9000B71F9C93839580932D010395043609F416
:101DA000002700932C018F918FBF9F918F91BF913E
:101DB000AF910F917F9118957F93AF93BF938F93BE
:101DC0009F938FB78F939091C600992399F09A951E
:101DD0009093C6009927A0E6B0E08091C400A80FB8
:101DE000B91F9C918395843609F488278093C40099
:101DF0009CB901C055988F918FBF9F918F91BF91D2
:101E0000AF917F911895000F111F221F331F089566
:101E100000951095209530950F5F1F4F2F4F3F4F26
:101E20000895019110810EC001911191219130818D
:101E30000BC00191108117FF05C03FEF2FEF04C0C9
:101E4000008111272227332737FF03C0E1DF8DE20E
:101E50008D93CF93DF93CF92DF92EF92AA24BB248E
:101E6000CC24DD24EE2440E2CAE0DD2755E093E3F4
:101E70008881890F87FD9F7083FD907F891B8993DF
:101E80005A95A9F7C0DFAA1CBB1CCC1CDD1CEE1C9C
:101E90004A9551F7E894EFE0FF2782910ED0EB309E
:101EA000E0F71EF068948A2D0CD088278D93EF9070
:101EB000DF90CF90DF91CF910895982F829501D038
:101EC000892F8F70805D26F0803309F4089568941F
:101ED0008D93089541E003C042E001C044E0E40F67
:101EE0008827F81F8291982F829506D0892F04D0D9
:101EF0004A95C1F70C94830F8F708A3008F0895F80
:101F0000805D8D93089588278D93089581918D9399
:101F10008823E1F708958FEF83959D919923E1F749
:101F20000895492063616E20646F2065766572793B
:101F30007468696E67207768656E20692077616EC6
:101F4000742E0000496368206B616E6E20616C6CBA
:101F500065732074756E2C77616E6E2069636820DE
:101F600077696C6C2E00537461727400434F4D4D51
:101F7000414E44313A20434845434B20434F4E4E57
:101F8000454354494F4E0000434F4D4D414E44325E
:101F90003A207365745F5553425F4D6F646500006E
:101FA000434F4D4D414E44333A2072657365744141
:101FB0004C4C0000434F4D4D414E44343A20437247
:101FC0006561746520616E64205772697465207460
:101FD0006F2066696C653A2046494C45312E54584D
:101FE000540046494C45312E54585400434F4D4DF2
:101FF000414E44353A20526561642066696C653A09
:102000002046494C45312E5458540000434F4D4D05
:10201000414E44363A20417070656E6420646174AC
:102020006120746F2066696C653A2046494C4531E1
:102030002E5458540000434F4D4D414E44373A20E2
:1020400044656C6574652066696C653A2046494C48
:1020500045312E5458540000434F4D4D414E4438A5
:102060003A20526561642066696C653A2046494CA5
:1020700045322E545854000046494C45322E54588F
:102080005400434F4D4D414E44393A2043726561EF
:102090007465206E65772066696C653A2046494C08
:1020A00045332E545854000046494C45332E54585D
:1020B00054003D3D3D3D3D3D3D3D3D3D3D3D3D3D76
:1020C0003D3D3D3D3D3D3D3D00002D2D2D2D2D2D1A
:1020D0002D2D2D2D2D2D2D2D2D2D2D2D2D2D2D2D30
:1020E0000000636865636B696E6720636F6E6E6581
:1020F0006374696F6E003E436F6E6E656374696FE3
:102100006E20746F20434833373653207761732035
:102110007375636365737366756C2E003E436F6EF3
:102120006E656374696F6E20746F20434833373671
:1021300053202D204641494C45442E005365745F81
:102140007573625F6D6F646520636F6D6D616E6442
:102150002061636B6E6F776C6564676564005553CF
:10216000422069732070726573656E740000555368
:1021700042204E6F742070726573656E742E204518
:1021800072726F7220636F64653A000043483337A0
:102190003635206572726F72212020204572726F71
:1021A0007220636F64653A00546865204348333792
:1021B0003653206D6F64756C6520686173206265AD
:1021C000656E207265736574210046696C652073C5
:1021D00075636365737366756C6C79206372656192
:1021E0007465640046696C6520636F756C64206E6D
:1021F0006F7420626520637265617465642C206F62
:102200007220697420616C726561647920657869F7
:102210007374730053657474696E672066696C65C6
:10222000206E616D6520746F3A00436865636B6969
:102230006E6720555342206469736B20636F6E6E26
:10224000656374696F6E2073746174757300436F96
:102250006E6E656374696E6720746F2055534220FB
:102260006469736B00003E436F6E6E656374696FE3
:102270006E20746F20555342204F4B003E436F6ECB
:102280006E656374696F6E20746F20555342202D04
:10229000204641494C45442E00004D6F756E7469CF
:1022A0006E6720555342206469736B003E5553425C
:1022B000204D6F756E746564202D204F4B003E4697
:1022C00061696C656420746F204D6F756E74205564
:1022D0005342206469736B2E00004F70656E696E07
:1022E000672066696C652E0046696C65206F7065B5
:1022F0006E003E46696C65206F70656E6564207384
:1023000075636365737366756C6C792E00003E4669
:1023100061696C656420746F206F70656E206669FA
:102320006C652E0053657420627974652072656156
:10233000640047657474696E672046696C65205354
:10234000697A650046696C6553697A65203D0000CD
:1023500052656164696E67206461746100002000E9
:102360004E4F204D4F52452044415441000057727A
:102370006974696E6720746F2066696C653A000045
:1023800044617461204C656E6774683A000053655F
:102390007474696E672064617461204C656E677443
:1023A000680057726974696E672064617461207493
:1023B0006F2066696C650000577269746520636FF1
:1023C000646520286E6F726D616C6C7920464620C2
:1023D000616E64203134293A20005570646174695B
:1023E0006E672066696C652073697A6500002061FC
:1023F0006E642000436F6E74696E7565207265614E
:1024000064004372656174696E672066696C65007B
:1024100044656C6574696E672066696C6500537508
:10242000636365737366756C6C792064656C657441
:1024300065642066696C650053657474696E672015
:1024400066696C6520706F696E7465720000506F0C
:10245000696E746572207375636365737366756CFA
:102460006C79206170706C6965640000436C6F73F7
:10247000696E672066696C653A00436C6F73696EBC
:10248000672066696C6500003E46696C6520636C78
:102490006F736564207375636365737366756C6CC5
:1024A000792E00003E4661696C656420746F20637C
:1024B0006C6F73652066696C652E204572726F7251
:1024C00020636F64653A000054696D654F75742E22
:1024D000204572726F72207768696C653A2000003F
:00000001FF
